:020000040800F2
:10000000F0FF0120315E0508995E0508C9A20108CC
:10001000995E0508995E0508995E050800000000D4
:10002000000000000000000000000000995E0508CC
:10003000995E050800000000995E05087D5C0108D6
:10004000995E0508995E0508995E0508995E0508A0
:10005000995E0508995E0508ED820008F5820008A2
:10006000FD820008058300080D830008A5800008B4
:10007000B9800008CD800008E1800008F580000804
:10008000098100081D810008995E0508995E050830
:1000900051DE0408995E0508995E0508158300087D
:1000A000559F0008599E0008659F0008499E00085A
:1000B000819E0008919E0008A19E0008B97D00085D
:1000C000AD7D0008ED7D0008E17D0008995E050822
:1000D000995E0508D55B0108E15B0108ED5B01084D
:1000E0001D830008995E0508995E0508995E05085C
:1000F000459F0008995E0508359F0008995E050830
:10010000995E0508995E0508B19E0008995E05088C
:10011000F95B0108055C0108C19E000819EE04089E
:1001200045810008598100086D810008818100081F
:1001300095810008995E0508995E0508995E050895
:10014000995E0508995E0508995E0508995E05089F
:10015000995E0508995E0508995E0508995E05088F
:10016000995E0508995E0508995E0508995E05087F
:10017000995E0508995E0508995E0508995E05086F
:10018000759F0008995E0508557E0008497E0008A5
:10019000995E050800000000995E0508995E050853
:1001A000995E0508995E0508995E0508115C0108CD
:1001B000217E0008157E0008995E0508995E0508F5
:1001C00031810008A9810008BD810008D1810008A3
:0801D000995E0508995E05081F
:0801D80084590500010000003C
:10600000074BD0F8C4105B68D0F8D0205B1A9A42D6
:10601000B8BFC0F8D030012380F8FC3000207047B2
:10602000001000E04368C26C10B49A61EFF3118273
:10603000502383F312884168046C0B6823EA04033D
:10604000846C2343D2B20B6082F311884369816868
:106050001A68096822F001021A60D0E908421C603F
:106060005A60D0E90A429C60DA60B0F86420CA62E3
:1060700000235DF8044B0377704700BF30B5EAB1E9
:106080008E464FEA014C034600F1C0050024196812
:106090009A6841EA0C0142EA0E029A60C3E90014D0
:1060A0000C33AB42F3D1D0F8C030C0F8C44043EA5F
:1060B0000E03C0F8C030C0F8C84030BD4FEA014EF2
:1060C0008C46E0E783695969B3F810C00A6830B4B8
:1060D0009C6822F0010224680A60E26822EA0C024D
:1060E000E260046890F814C02068082202FA0CF2FA
:1060F00002403AD123480578022000FA0CF0606093
:10610000002D30D0187F012830D0D3F8D8200132AC
:10611000C3F8D820EFF31181502282F31288586817
:106120001C6C026822EA04025C6C2243C9B2026061
:1061300081F31188D3E90C405A69996809681460A1
:106140005060D3E90E409460D060B3F89C00C86200
:1061500010680124204310601C7783F8D540CA687A
:106160001B8A1343CB6030BC7047FEE783F8D52011
:10617000D3F8DC000A68013022F00102C3F8DC0029
:106180000A60F0E78018002010B40C4C6368002B04
:1061900011DD002004F1080C0146DCF8943003F115
:1061A000C00259600C339342FBD1636801308342D3
:1061B0000CF1E40CF1DC5DF8044B70478018002012
:1061C000704700BF024B03EB401090F8B5037047D7
:1061D00080180020704700BF0B4890F8CC1489B19C
:1061E00001EB4101002310B4490000F2D4401C46E9
:1061F00050F82320063302B114608B42F8D15DF8C9
:10620000044B7047704700BF801800200B4890F87F
:10621000CC1489B101EB4101002310B4490000F214
:10622000D4401C4650F82320063302B11460994232
:10623000F8D15DF8044B7047704700BF801800200C
:1062400001207047034B00EB400003EBC00090F8C7
:10625000E5047047801800201F4890F8CC34CBB379
:1062600000222DE9F04300F2D4431C4F50262C2588
:10627000144607E053F8181B0C6090F8CC14013258
:10628000914225DD197C0029F4D059684FEA912EFE
:10629000AEF5801EBEF1540F4FF0FE0C98BF17F8FC
:1062A0000EC0EFF3118E86F31288D1F82490D1F846
:1062B000148005FB0C0C09F1010948F00108CCF829
:1062C000BC955FFA8EFCC1F814808CF31188D1E77D
:1062D000BDE8F083704700BF801800209C77050858
:1062E00007EE900AB8EE670A704700BFBCEEC00A1E
:1062F00010EE103A98B27047F8B58469D4F8DC70A3
:10630000D4F8E0303D68D4F89C1003F01F03042259
:106310009A4015420E6804F19C0017D016F0040F45
:1063200014D00B689B0603D40B6823F004030B60A6
:10633000D4F8CC307A6013B19847D4F89C104B68ED
:106340001BB90B6823F001030B60F8BD02229A40D1
:10635000154218D016F0020F15D00B689D0606D412
:106360000B6823F00A030B60012384F8C130D4F8D2
:10637000C8307A60002284F8C020002BDFD0984714
:10638000D4F89C10DBE708229A402A42D7D0320783
:10639000D5D50A6822F00E020A60012202FA03F340
:1063A0007B60002384F8C030D4F8D030C4F8D82003
:1063B00084F8C120002BBFD1C1E700BF394BD3F80F
:1063C000043530B4F3B938490223C1F8D037C1F8E5
:1063D000D4374FF4A870C1F8D837B0F5A87344BFCC
:1063E0006FF4A073C3181B115B002A33C1F8DC37AC
:1063F000DB00B3F50C7F31DA5B10012030BCC1F853
:10640000E0377047294A2849A2FB03239B0C032449
:10641000082BC1F8D04724D023F00802102A2BD033
:106420001B2B1BD1224A234BC1F8D84702EB40005B
:106430000225B0F85820C1F8D4575200A2F5AB722B
:1064400083FB0230D317C3EBA0035B002633C1F8F4
:10645000DC3703EBC303B3F50C7FCDDB002030BC8E
:106460007047134B03EB40000222B0F85800C1F80C
:10647000D42701239840AEE70D4A02EB4000102BD1
:10648000B0F858004FF00202DDB24FEA4000C1F808
:10649000D42704D0182D08BF23469CD0DEE713462E
:1064A00099E700BF002000408018002083DE1B43D6
:1064B0009C770508398EE338012343770020704725
:1064C000D0E90B2108B583690B4483610AB1084602
:1064D0009047002008BD00BF436A1B681B6A5B68C9
:1064E0005B78024613F0010008BF5077704700BF89
:1064F000C2628161704700BF704700BF04307047BF
:106500000C4B93F8E827D3F8E4170244D2B283F88F
:10651000E82793F8E82708441206C3F8E40705D5EE
:1065200093F8E82782F0800283F8E827024B0122E3
:106530001A70704780180020000000202DE9F047F5
:10654000144FD7F8EC57ED0A1ED00026B04607F6D8
:106550002409D7F8F0371048D3F828A0C7F81C88CA
:10656000AC19641010234A46E102D0470F280BDD16
:106570000A4B03F1100C53F8041B013107D163459A
:10658000F9D12546B542E4DCE802BDE8F087661C97
:10659000F8E700BF8018002070200020A420002011
:1065A000184BD3F83418D3F838288A1A322A15D859
:1065B000D3F84C288A4200D37047D3F83C28E2B184
:1065C0001068928810B44469224218BF1204323114
:1065D0005DF8044B8261C3F84C187047D3F83C282F
:1065E0003AB193F8480811689288C00748BF12046E
:1065F0008A610022C3F84C2870473231C3F84C1826
:10660000704700BF80180020064AD2F83C383BB1E2
:1066100092F848181A689B88C90748BF1B04936101
:106620000020704780180020044B4FF40070D3F80E
:106630005838108000200B60704700BF8018002081
:1066400000207047012070470120704700207047EC
:10665000164BD0F8C0105A6810B50446D0F8B800F0
:1066600071B1131A99420BDC94F8B030C4F8B82019
:10667000012B10D0D4F8B4300133C4F8B43010BDBD
:10668000D4F8C430C4F8B8200344C4F8BC3094F83B
:10669000B030012BEED104F1C801201D0EF0D6FD63
:1066A000D4F8B4300133C4F8B43010BD001000E0A9
:1066B000CB070AD490F82830012B08D0C368B3F177
:1066C000807F03D90123037770477047704730B547
:1066D0001C4A1D4BD2F888485B68456AB4EB930F9F
:1066E0008DB04FEA93022AD20721022352085B00A1
:1066F00094429BB201D20139F8D1C268AB80B2F1A9
:10670000807F1AD90122027701A9B72000238DF8D2
:1067100004000291284602A9CDE903328DF8142025
:106720008DF82820CDE90633CDE908330B930EF020
:106730008DFD2A68136A002BFCD10DB030BD0223F9
:10674000DBE700BF801800200000002030B590F883
:106750002830012B8BB0044605D0407F48B1002380
:1067600063770BB030BD456A2B681A7B2ABB637F09
:1067700013B901200BB030BD1249009112490191AB
:106780000221002301220291284669468DF80C203F
:106790008DF82020CDE90433CDE9063309930EF0BE
:1067A00055FD2A68136A002BFCD1084B93F88D38ED
:1067B00003F0010383F00100D2E71B6A002BD6D05F
:1067C0000020CEE7080000200C21002080180020C7
:1067D0002DE9F0411F4F90F82820437FDFF87880A3
:1067E0008AB00446A7F68C06012A06D00BB1002316
:1067F000637701200AB0BDE8F081656A2A68117BE1
:1068000011BB002BF5D00023CDE90433CDE90633CD
:10681000099301238DF80C308DF82030694602234E
:106820002846CDE9008702930EF010FD2A68136A0E
:10683000002BFCD196F88D3803F001036377002B11
:10684000D7D094F82820CFE7126A002AD6D1002B9F
:10685000CFD0D8E70C2100200800002030B5234A13
:10686000234B95B0044623480493CDE90020002330
:10687000151D21480990083ACDE90A23CDE90E33C8
:10688000207F626A059598420693109313931193A3
:106890004FF0010312688DF80C3007938DF820300B
:1068A0008DF834308DF848304FF0020514BF0523C1
:1068B000042302950C93136A002BFCD198B10F4B63
:1068C0000A0E5A730E330A0A080C5A70997018701F
:1068D000606A69460EF0BAFC636A1A68136A002B94
:1068E000FCD115B030BD064BEDE700BF1400002011
:1068F000D964000810210020B964000800000020BD
:106900000D00002010B5044694B050220749684697
:1069100050F0ACFD606A69460EF098FC636A1A6834
:10692000136A002BFCD114B010BD00BFFC77050822
:1069300070B50546406A0068046A002CFCD1287FC7
:10694000002839D0264CA86905266665060E6677AC
:1069500004F11E0C8CF80200060C000A8CF8006092
:106960008CF80100086816682066012B4FF00000C3
:10697000A6662E63A06726D0022B1CD15368206721
:106980004A6862671E44174A84F86C000121E36775
:106990002E6384F88010C4F88420134B697F686AE2
:1069A00003F11402002914BF194611460EF04EFCE3
:1069B000EB6A7BB1286B70BD094C0420606504F163
:1069C0001D0CA869C6E7074A84F86C30C4E91C208E
:1069D000E067E2E76B6A1A68136A002BFCD1E9E70B
:1069E00000000020C16400082400002000B583B02E
:1069F00081610192049A0093C26201236A4601A94F
:106A0000FFF796FF03B05DF804FB00BFF0B5074643
:106A1000406A066895B01D46346A002CFCD13E4E93
:106A20003E4801903E48049006F1A40000903B7F50
:106A300006940220029006F19C0C01208DF80C00B7
:106A4000CDF814C0002B4FD0CDE90944CDE90E4458
:106A5000CDE910440B0E0B92052286F89D308DF87F
:106A600020400C958DF834008DF84800139406F101
:106A70009E0307922B4C7268D4F888C89970080C52
:106A8000090A59701870BCEB920F786A4FEA9201AC
:106A90003ED207230222490852008C4592B201D20D
:106AA000013BF8D17B7F8280E3B905A90EF0CEFBD4
:106AB000786A03681A6A002AFCD17268D4F8983898
:106AC000B3EB920F4FEA920124D207240222490825
:106AD00052008B4292B201D2013CF8D1828028460A
:106AE00015B0F0BD6946E1E70B920422CDE9093308
:106AF000CDE90E33CDE910338DF8203013930C958A
:106B00008DF834008DF8480006F19D030792B1E737
:106B10000222C7E70222E1E7000000201421002042
:106B2000D964000880180020F0B5836993F8BC2070
:106B3000012A8BB0054625D0023A012A2DD893F8B8
:106B40002C21D96F164C62F07F030B708669D6F842
:106B500080305F1C0FCCEC46ACE80F00F36FCDE942
:106B600000370FCCACE80F0094E803008CE803007A
:106B7000694606F110000EF069FBAB6919690A6AF3
:106B8000002AFCD1D3F880305A8852BAEA819A8818
:106B900052BA2A82DB885BBA6B8201200BB0F0BD4F
:106BA0004C780508F0B590F8BC30D0F88060012B27
:106BB0008BB0044648D014D8C36F4FF0FF321A6030
:106BC0005A609A60DA60D0F8C0300522B3F57A7F57
:106BD000C0F8D02052D8032380F8BC3001200BB07D
:106BE000F0BD023B012BF9D890F82D31C26F394D21
:106BF00063F07F031370D0F880305F1C0FCDEC463C
:106C0000ACE80F00E36FCDE900370FCDACE80F0023
:106C100095E803008CE80300694604F110000EF0CB
:106C200015FB2269136A002BFCD173885BBAA4F8A8
:106C3000B030B3885BBAA4F8B230F38801205BBAF5
:106C4000A4F8B4300BB0F0BD90F82C2190F82D31A1
:106C50009B1A5B100133DBB206EB430236F81330AC
:106C60005BBAA0F8B03053885BBAA0F8B230938812
:106C70005BBAA0F8B43001200BB0F0BD03691A7BF9
:106C80001AB35B690BB390F87830F3B190F82C31FC
:106C9000C26FC4F8840063F07F03137090F82C1166
:106CA00090F82D31D0F880200B48C4F8E4005B1A2E
:106CB00007330121C4F8DC30E36F84F8E0100A44A4
:106CC000C4E9353284F8BC1088E7022384F8BC306C
:106CD00084E700BF4C78050801600008F8B53A4C1D
:106CE00004EB401292F8B43303B9F8BD374B4FF4BC
:106CF0009A7C0CFB004C93F8446193F845E19CF8B6
:106D00009E7882F89A7376454FF000024FEA40155C
:106D10008CF89E280ED00EEB4E0203EBC2024FEA17
:106D20004E0792F8482102F1FF3CBCF1010F3DD91A
:106D3000032A35D0264B254403EB4010A5F89813C1
:106D40000EF05AF82378D5F8B0239BB1D5F89C13F0
:106D5000D2F8943001248C4003F1C001420010F4B9
:106D6000004F90B202D15A6822435A600C338B42D2
:106D7000F4D1F8BDD5F89C43D2F8943004F1100258
:106D80000124944003F1C001420010F4004F90B27E
:106D900002D15A6822435A600C339942F4D1F8BDAB
:106DA0000EF1010202F00302B242C3D0774403EBBA
:106DB000C703034493F855110029BBD0631901227E
:106DC00083F89A23B6E700BF8018002078290020B6
:106DD000181C00202DE9F8430FF0A6F82C4CDFF822
:106DE000B8802C4D074600266068002845DD00234A
:106DF0001A464FF0E40C0CFB0341013391F8DD100F
:106E0000834242EA0102F6D116435FFA86F916463A
:106E1000D8F80430C3F3080363BBEFF311834BBB13
:106E20004FF0E02CD4F83438DCF81810D4F83428BB
:106E30009342F7D1D5F8A8219142F3D8D5F8ACC147
:106E40004FF47A7202FB0CF0401AB0FBFCF002FB2C
:106E50000300C31BB3F5FA6F01DC002EC4D1B9F1F6
:106E6000000F04D00B4B93F8B021542A08D04846A9
:106E7000BDE8F8830EF028FFEBE7B1460026C7E730
:106E8000B3F8B8210132A3F8B8214846BDE8F88329
:106E9000801800207829002000ED00E02DE9F04F57
:106EA0002DED028BBD4F83B03B7801932BB90120B0
:106EB00003B0BDEC028BBDE8F08FD7F83438DFF8B3
:106EC000F0B208EE103A07F566774FF0000AABF51E
:106ED000E276D6F8B435534540F3FA80BB69D7F86B
:106EE0000480D3E933450FF01FF896F8B091009075
:106EF00005F1004196F8CC0239390122B9F1540F5D
:106F000004EB410102FA08F204EB400301D1A6F8B8
:106F1000BA01994240F21581B3F800C01CEA020F91
:106F200000F00781B3F802C01CEA020F00F01681DE
:106F3000B3F804C01CEA020F00F01281B3F806C0D7
:106F40001CEA020F03F10803E3D1A3EB040E9942FC
:106F50004FEA6E0E40F2F580A5EB0E05452D28BFD9
:106F6000452503EB4505AB4280F0EF804FF0000C68
:106F70001C46E046614618881040884218BF02331C
:106F800014D158881040814218BF04330ED198881C
:106F90001040814218BF063308D1D8881040814282
:106FA00003F1080302D19D42E5D802E09D4200F2C0
:106FB0009880B8F1110F40F2C880D8F1150200F1A5
:106FC000C48077490098D1F8A8309E45D6F8D032D1
:106FD00038BFC1F8A8E0C11A00291CDB03F5F4236F
:106FE00003F59073984298BFC6F8D0326C4B88BFB7
:106FF0000098D3F8A8306A4984BF0530C6F8D0029B
:10700000052B86BF053BDBB2002386F8CC324FF060
:10701000FF33C1F8A8304AB10CFA02F2C8F11408E3
:107020004FF0010C0CFA08F848EA020C5D4ACCF368
:10703000C4330CF01F0102EB830302EB8101D3F890
:10704000D800D1F8D830CCF3441102EB8101CCF355
:10705000842C02EB8C0CD1F8D82043EA003343EAAD
:107060000213DCF8D82043EA022383EA132282EADF
:10707000121202F00F020F2A4CD1B3F5803F49D211
:10708000B9F1540F4FEA131304D1B6F8B421013209
:10709000A6F8B421D6F8CC21B3F5606F02F1010255
:1070A000C6F8CC2169D00199ABF80C303E4B5C207E
:1070B00018EE102A00FB0A300DF014FF0AF1010A45
:1070C000BAF1080F07F120070BF1140B7FF401AFA1
:1070D0000123012086F8C83203B0BDEC028BBDE865
:1070E000F08F1C1B31496410013481FB0401A1EBBA
:1070F000E4710129B8BF01210CFA01FC8844012088
:10710000013900FA01F141EA0C0C33F8021C1C466B
:10711000114030E7B9F1540F24D0D6F8CC31013307
:10712000C6F8CC31D6F8C8310133C6F8C8310021D1
:10713000BCE70233A3EB040E99424FEA6E0E3FF612
:107140000BAF10B1013886F8CC02B9F1540FB5D1AC
:10715000B6F8B6310133A6F8B631AFE70433F4E63A
:107160000633F2E6B6F8B4310133A6F8B431D6F8F6
:10717000CC310133C6F8CC31D4E796F8452102EB87
:10718000420206EBC202524492F855210D2A8AD1DE
:10719000802301998BF81E3088E700BF80180020FB
:1071A000000000209C7705084C2C002056555555B2
:1071B0003C2B002010B504464FF08EFC81B22046D7
:1071C000BDE810408AE500BF38B50B4D00EB40002C
:1071D00005F2D44303EBC00393ED027AD3ED037AB7
:1071E000E7EE007AC4002C44B0EE670A4FF074FC5E
:1071F000D4F8D434186038BD801800202DE9F0414F
:107200001F4E96F8442196F845319A4232D11D48D6
:107210004568002D13DD002410F8088B2746B8F1CF
:10722000000F1FD0037F012B1FD042691368013468
:1072300043F00103AC4200F1E4001360EFD10EF023
:1072400073FED6F8B845002C0ADD0F4B03EBC404DF
:1072500019689A88C868083302439C42CA60F7D10B
:10726000BDE8F081FEF7DEFEDFE780F8D470FEF7C0
:10727000D9FEDAE74AF0E0FE0028C8D1BDE8F08187
:107280007829002080180020342F00202DE9F041BB
:107290002A4D95F8442195F845319A4248D195F800
:1072A000DC356BB395F8DD45254B264F264E002186
:1072B00040F20D3C34B3D3F8A820B3F8ACE0D2F8D8
:1072C0000480186808EA07084EEA080EC2F804E0CD
:1072D000D2F800E04EF0010EC2F800E0D0F8DC2356
:1072E000324042EA0C02C0F8DC23C26842F48072E9
:1072F000C26095F8DC2501318A4203F1B803D9DC7C
:10730000BDE8F0811A68B3F80480D2F800E0B3F861
:10731000B4002EF0800EC2F800E0C2F82C80546257
:10732000D2F80CE040EA0E00D060A3F8B440E0E7E9
:107330004AF082FE0028B2D1BDE8F0817829002011
:10734000582F00200000FFFFE0E0FFFF0C4AF8B5D7
:10735000136855692B4003EA000555617DB1094F5B
:107360000126B5FA85F4C4F11F0407EB840306FA7D
:1073700004F4D3F8A00B03689847A543F1D1F8BDF6
:1073800000040140782900200269C3682DE9F04714
:1073900012EA03092AD005460E464FF000474FF087
:1073A0000008B9FA89F327FA03F2D2431B3B2A619A
:1073B00009EA0209042B16D8DFE803F03B30251A4E
:1073C0000300B36A002B3FD003F1FF3A1FFA8AFA99
:1073D000C6F82880746A34B123682046514698471D
:1073E0006468002CF8D1B9F1000FDAD1BDE8F0875C
:1073F00070680028F7D0696B036889B29847B9F1C3
:10740000000FCED1F2E7B0680028ECD0A96B03687A
:1074100089B29847B9F1000FC3D1E7E7F0680028B7
:10742000E1D0E96B036889B29847B9F1000FB8D190
:10743000DCE730690028D6D0296C036889B2984708
:10744000B9F1000FADD1D1E7E96A1FFA81FAC1E7BE
:107450002DE9F04704460068237D0268022101FA05
:1074600003F31A4209D0A6699E4D4FF49A7202FBAB
:10747000065292F8881911B14360BDE8F0879A4925
:107480009A4F4968C7F8E01B97F8DD15002900F00E
:10749000CB80D2F8A428D2F810C01168DCF8002004
:1074A00022F00102CCF80020CA6822F48072CA607F
:1074B0002A78002AE0D04FF49A7909FB06F905EB07
:1074C000090A8B4ADAF8C409DAF8A438C1B20839D3
:1074D000D3F80080A2FB01310909864A013120F06E
:1074E000FF0091444CF084FAD7F8E83B01228AF877
:1074F0008829002B00F0CD80D8F800204FF49A7333
:1075000003FB065342F08002C8F80020D3F8842918
:107510004FF0FF31B2F5807FC8F82C1000F0BE802C
:107520005BD8012A00F09280102A22D1D8F82020BE
:10753000D3F8C01922F01002C8F82020D3F8B829D7
:1075400042EA0100D8F81820D3F8BC1922F47F428F
:10755000014342EA1122C8F81820D3F8B429D8F818
:10756000203023F0A00343EA021343F01003C8F8CD
:1075700020304FF49A7303FB06550023D5F8C40955
:10758000C5F86039C1B2A3F133330839A3FB013127
:1075900009094A46013120F0FF004CF0E3F9D5F823
:1075A000C429206853681B0C1B0443F01603536066
:1075B000136843F001031360D5F8A428B5F8A83880
:1075C0001268D1680B43D360474A237D5168C7F8DE
:1075D000E41B022202FA03F34EE7B2F5805FC8D142
:1075E000D8F82020D3F8C01922F48052C8F82020FF
:1075F000D3F8B82942EA0100D8F81C20D3F8BC1906
:1076000022F47F42014342EA1122C8F81C20D3F839
:10761000B429D8F8203023F4204343EA023343F45A
:107620008053C8F82030A4E7D2F8C4C9DCF80010B1
:1076300021F00101CCF80010D2F8A418B2F8A8C8C3
:107640000968CA6822EA0C02CA6031E7D8F820202B
:10765000D3F8C01922F00102C8F82020D3F8B829C5
:1076600042EA0100D8F81820D3F8BC1922F0FF0232
:10767000014342EA1142C8F81820D3F8B429D8F8D7
:10768000203023F00A03134343F00103C8F82030ED
:107690006FE70EF049FCC7F8E80B2DE7D8F820207B
:1076A000D3F8C01922F48072C8F82020D3F8B82982
:1076B00042EA0100D8F81C20D3F8BC1922F0FF02DE
:1076C000014342EA1142C8F81C20D3F8B429D8F883
:1076D000203023F4206343EA022343F48073C8F884
:1076E000203046E780180020001000E078290020B4
:1076F000CDCCCCCCD82100202DE9F047089F88467E
:1077000015460021202204461E464FF0D7FE4FB1F9
:107710003B68E3811B0C23827B687A89E3821B0C24
:107720006282238340464EF095F9EB0619D4431E3E
:10773000B8B108EB000701E0013B12D317F801CD07
:10774000BCF12E0FF8D1C01A421E032AA8BF032293
:10775000082B03F1010AA8BF08239146C2441A4628
:1077600006E008280246C246A8BF08224FF00009DA
:107770004FF0203341462360636004F10807204640
:107780004FF074FE174B23815146BB704A46384672
:107790004FF06CFE611EE31D11F801CFACF1610EDC
:1077A000BEF1190F9CBFACF1200C81F800C08B42D8
:1077B000F2D1384604F10B0110F8013BA3F161024C
:1077C000192A9CBF203B00F8013C8842F4D11823C1
:1077D0002373330CA382E572099B6683E361BDE8E2
:1077E000F08700BF202020002DE9F04FDFF88894BB
:1077F000D9F83408C9F8380887B0002B00F0DA80CF
:1078000001F5FE781344DFF874B40393164601F1D2
:107810002007C24621E0002E64D0D9F86438B34274
:1078200000F0CC80D9F86038B34200F0FF80D9F87E
:107830006838D9F86C18B3424BD8B14200F299813C
:10784000711A20464AF042FB039B01369E4207F51F
:1078500000770AF5007A00F0AD80D9F87058B5428B
:10786000A7F12004D7D8751BD9F8808805F0070246
:10787000EB080492D8F830200233934203D3D8F8AF
:10788000382093420BD94146184605934AF0EEFA48
:10789000059B8046002800F08C81C9F8800898F884
:1078A0000420002A40F03481D8F82850002D00F040
:1078B0007981D8F830209B1A049A02EBC303D8F8D8
:1078C0000C20204602EB43224FF400714346A847A8
:1078D000BAE7B142B4D920464FF4007200214FF00C
:1078E000EDFDB1E74FF40072314620464FF0E6FD62
:1078F000802387F89E310C2387F8A231D9F86038AD
:10790000D44AD9F85818C4F8C6319342C4F8CA11F9
:1079100000F33481D04AD14C82FB03021A44D817B9
:10792000C0EB621284FB0254CD4D85FB03C5C0EB56
:107930002530C2EB821587F8A1015B1B801020F077
:107940003F0001330343144487F8A031D317C3EB3E
:10795000E4142244BF4B87F89F214A1E9A4200F349
:107960001981BD4BBD4883FB02311144D317C3EBD2
:10797000611180FB0140BA4C84FB0254C3EB2433F9
:10798000C1EB811487F8A531121B9B1023F03F0334
:1079900001321343084487F8A431CB17C3EBE0103E
:1079A000014487F8A311552387F8DE31AA2387F80D
:1079B000DF3149E7002007B0BDE8F08F4FF0FF331B
:1079C00084F8EC3184F8ED3184F8EE3184F8EF314D
:1079D000D9F87838C4F8E8315223237063706123F2
:1079E000A37084F8E73141230025E37084F8E63181
:1079F000722384F8E43184F8E5314FF4F0722946BB
:107A0000A7F11C004FF05AFD5523C7F8D051C7F815
:107A1000D451C7F8D85184F8FE316FF0550384F87B
:107A2000FC5184F8FD5184F8FF310DE700214FF43B
:107A3000007220464FF042FD8A4A03CA47F81D0CE7
:107A4000EB2007F8200C582007F81F0C902047F86F
:107A5000191C07F81E0C002302220821F820E372EB
:107A6000227307F8131CA273E37307F8102C07F8AE
:107A70000B0CD9F8600884F82C20D9F858286376C4
:107A8000121A2262D9F86808D9F86C28E376121A1B
:107A90003F2020764FF0FF30A0763E202077012057
:107AA0006377A377E37784F82D3084F82E3084F859
:107AB0002F30626284F8300084F8313087F8261065
:107AC000802187F82010292187F82210942187F837
:107AD00023100E2187F824100D21634A87F8251002
:107AE000552187F8DE11AA2187F8DF1103CA5F4B01
:107AF000C7F82700C7F82B1003CB1388A7F82F303F
:107B00009378C7F83200C7F8361087F831309BE613
:107B10004FF40072002120464FF0D0FC049B002B54
:107B20004ED1D8F84030002B00F0AA80049AD8F843
:107B300030304F49CDE9002220461122FFF7DCFD0D
:107B4000D8F840301A6C002A00F0AD80049A1B6B04
:107B5000CDE90022474911223846FFF7CDFDD8F87C
:107B6000448007F120044FF4E075B8F1000F3FD1D5
:107B70006AE6F11A20464AF0A9F965E6FF2387F87C
:107B80009F3187F8A13187F8A031324B4A1E9A42C3
:107B90007FF7E7AEFF2387F8A33187F8A53187F891
:107BA000A43100E7294620464FF400724FF086FCCE
:107BB0004AE6A7F1240343F804BF9A45FBD143E604
:107BC000D8F84030049AD8F84480002B0CBF012329
:107BD0000223C3EB02154346002B3FF435AE013DB3
:107BE0009B6CF9D198464FF40075002B3FF42CAEF6
:107BF00025442034234620354446049698460EE01A
:107C00005CF81C1B236BCDF800C000260196FFF723
:107C100073FDA46C08F12008CCB1A84517D02379D6
:107C2000A44604F11C0E1122A8F12000002BE7D17C
:107C300062792669236B216842F02102CDE900E6D2
:107C4000FFF75AFDA46C08F12008002CE5D1049E32
:107C5000FAE500BFFF03FB0083200882818080805B
:107C60009755454178F4050884F4050890F4050813
:107C700070F4050874F4050880180020DEADBEEF2E
:107C8000049BD9F85C18CDE9003320460822FFF7A1
:107C900033FDD8F84480B8F1000F3FF4D5AD3C4631
:107CA0004FF4F075A4E7049BCDE9003352E700BF21
:107CB00070B5394C4FF49A7303FB004393F8AB381B
:107CC00003B970BD354D95F844C195F845319C45D3
:107CD0000ED003EB430205EBC20292F848E10EF12D
:107CE000FF36012E4FEA430231D9BEF1030F29D0EE
:107CF0004FF49A7303FB00F00444294BA4F89C183A
:107D000018440DF079F895F8DD3502467BBBD5F8BF
:107D1000EC3BD4F8CC0901219847D4F8C859B4F801
:107D2000A838D4F8C429B5F8B41019435368A5F895
:107D3000B4101B0C1B0418435060136843F001037C
:107D4000136070BD5E1C06F003066645D0D0134478
:107D500005EBC303034493F855110029C8D04FF431
:107D60009A7303FB0043012283F89E28C0E7D4F8EE
:107D7000A438D4F8C8195B79D1F8B00003F0FC033B
:107D800018440421D5F8EC3B9847D4F8C839800052
:107D9000A3F8AC0070BD00BF801800207829002037
:107DA0001C21002000207047704700BF014843F0AD
:107DB000D7B900BF80350020084810B4D0F8083C7F
:107DC000D0F83C4C99691A682CB1234600F608405B
:107DD0005DF8044B18475DF8044B70477829002084
:107DE000014843F0BDB900BFE4350020084810B495
:107DF000D0F86C3CD0F8A04C99691A682CB1234695
:107E000000F66C405DF8044B18475DF8044B704772
:107E100078290020014843F0A3B900BF483600206C
:107E2000084810B4D0F8D03CD0F8044D99691A68CD
:107E30002CB1234600F54D605DF8044B18475DF802
:107E4000044B704778290020014843F089B900BFEE
:107E5000AC360020084810B4D0F8343DD0F8684D56
:107E600099691A682CB1234600F634505DF8044B2A
:107E700018475DF8044B704778290020027A0B4BB5
:107E80000168134410B413F8013CCC5824F00104E9
:107E9000CC50CA181368DB07FCD4027D5DF8044B94
:107EA0000223934043F00C034B6070472CF5050808
:107EB0002DE9F041D0F80080294DD8E90474A06183
:107EC0003A7DD4F800C00223064603FA02F238686D
:107ED00042F00C024260227D934043F00C03CCF848
:107EE0000430397AD8F818206B1813F801EC50F8E0
:107EF0000E3023F0010340F80E30237A2B4413F8A0
:107F0000013C5CF803E02EF0010E4CF803E05CF855
:107F100003E04EF0020E4CF803E04BF023FDD8F8DE
:107F20001C20217A20684BF01DFD3B7A38683268AE
:107F30002B44526813F8011C435843F0010343508B
:107F4000237A20681D4415F8011C435843F00103AF
:107F50004350536843F003035360BDE8F08100BF12
:107F60002CF5050810B1036882889A61704700BF3C
:107F700010B1036882889A62704700BF08B51D205F
:107F80000DF0EEFC08B183794BB11E200DF0E8FC3A
:107F900008B1837903B108BD5523C38008BD5523BB
:107FA000C380F2E7D3B20F2B2AD84FF0000C10B4E5
:107FB0006346144C04E00133252B1DD014F803CF85
:107FC0006045F8D194F801C08C45F4D10E4902EB1C
:107FD000420401EB840201F1AC000C4903EB4303C2
:107FE0000B4400EB840093F85A315DF8044BC2F85F
:107FF000B43082F8AC30704700205DF8044B704715
:1080000000207047F4780508000000209C770508E0
:1080100010B40C4C002304F5586C01E0152B0CD067
:1080200003EB430201331CF802108142F6D12244D3
:108030005DF8044B92F9820D70474FF0FF305DF808
:10804000044B70477829002030B40023114C124DA6
:1080500004E001331E2B19D054F8085FA842F8D170
:1080600025798D42F5D10D4C0D4802EB420504EB0C
:10807000C30300EB850293F8CD31C2F8B430AC30C5
:1080800000EB850082F8AC3030BC7047002030BC7B
:10809000704700BF64790508002C01409C770508F3
:1080A000000000200348D0F87C3113B100F5B67011
:1080B00018477047000000200348D0F8A03113B1E2
:1080C00000F5C87018477047000000200348D0F83A
:1080D000C43113B100F5DA70184770470000002072
:1080E0000348D0F8E83113B100F5EC701847704739
:1080F000000000200348D0F80C3213B100F5FE70E8
:1081000018477047000000200348D0F8303213B100
:1081100000F5087018477047000000200348D0F8A9
:10812000543213B100F51170184770470000002059
:108130000348D0F8783213B100F51A701847704729
:10814000000000200348D0F89C3213B100F52370E2
:1081500018477047000000200348D0F8C03213B120
:1081600000F52C7018477047000000200348D0F835
:10817000E43213B100F53570184770470000002055
:108180000348D0F8083313B100F53E701847704724
:10819000000000200348D0F82C3313B100F54770DD
:1081A00018477047000000200348D0F8503313B13F
:1081B00000F5507018477047000000200348D0F8C1
:1081C000743313B100F55970184770470000002050
:1081D0000348D0F8983313B100F562701847704720
:1081E000000000200E4B013800B500EBC00003EB8F
:1081F00080000C4BD0F86C0183B098420CBFA020DB
:10820000A1204AF03DF9084B9A6C42F004029A64AE
:108210009B6C03F004030193019B03B05DF804FB26
:10822000000000200000024000100240F0B50138BC
:10823000194C00EBC00004EB80041D461748D4F82D
:108240006C3183B083420CBFA020A1200E4617469C
:108250004AF016F9124B9A6C42F004029A649B6C35
:1082600094F98101C4F87C6103F004030193B90916
:10827000C4F88451019B4AF05BF894F98131002BDA
:1082800008DB5809074903F01F03012202FA03F330
:1082900041F8203003B0F0BD000000200000024093
:1082A0000010024000E100E0800AA0F58010542890
:1082B00006D8044B1B5C0B2B02D8034AD0567047E0
:1082C000002070479C7705081CF5050858B1838885
:1082D0004FF00042B3FA83F332FA03F303D00249BA
:1082E0000A6813430B607047000401400120FFF748
:1082F0002DB800BF0220FFF729B800BF0420FFF708
:1083000025B800BF0820FFF721B800BF1020FFF7F5
:108310001DB800BF4FF47870FFF718B84FF47C40D9
:10832000FFF714B830B1036882881B691A4214BF82
:1083300001200020704700BF70B50C4686B016467D
:108340000546D8B1036803F138439B0A0D4A13442C
:1083500093F8B8024AF094F8AA882868059604F0C1
:108360001303CDE9012301A9C4F34113C4F381042C
:10837000CDE9033442F0EEFD06B070BD4FF0FF339F
:10838000E4E700BF9C77050800B1D5E7704700BF60
:108390002DE9F0477F4DC0EB001605EBC60682B015
:1083A000D6F8C03D002B00F0B3800446070196F8D4
:1083B000300E4AF065F896F8303E03F01F025B0974
:1083C0000121013B01FA02F2042B0BD8DFE813F084
:1083D0000500CA00D000D900C4006F49CB6A23EA67
:1083E0000202CA623B1B05EBC30304F1010A93F8C6
:1083F000C40D0DF0B5FA5FFA8AFA064618B11223D9
:1084000080F807A083713B1B05EBC30393F8C50DF0
:108410000DF0A6FA814618B1132380F807A08371E6
:108420003B1B05EBC30393F8C60D0DF099FA80468C
:1084300018B1142380F807A083713C1B05EBC40519
:10844000484695F8C82D2E21FFF79EFF95F8C92DB7
:108450000E214046FFF798FF95F8C72D2E21304694
:10846000FFF792FFD5F8C03D4C491A688B4222F0C5
:1084700040021A604FD04A4A934263D002F58062AC
:10848000934252D1444A916B41F400419163916B04
:1084900021F4004191635A6842F480525A601A688C
:1084A00052062DD43F491D68D1F8C043D1F8CC0302
:1084B000D1E9EB263243D1F8B8633243D1F8BC633B
:1084C0003243D1F8C46322433243D1F8C86325F460
:1084D0007F45324325F0BF0502432A431A605D6899
:1084E000D1F8B42325F4706525F0040542EA14425E
:1084F0002A43B0F5005F5A6004BFB1F8D0231A6177
:10850000DA6922F40062DA611A6842F040021A6005
:1085100002B0BDE8F087204A116C41F4805111642B
:10852000116C21F480511164B5E71F4A9342B2D116
:10853000194A116C41F400411164116C21F400419D
:108540001164A8E7144A916B41F480419163916BE7
:1085500021F4804191639EE70F498B6A23EA02026E
:108560008A623FE70C490B6C23EA02020A6439E78E
:10857000094B996D114399659B6D1A400192019BBE
:1085800030E7054BD96D1143D965DB6D1A40009278
:10859000009B27E7782900200010024000300140AE
:1085A0000038004000000020003C01402DE9F04F61
:1085B0008146DFF8C082D9F80040A94DD4F804B054
:1085C000A84EC34583B000F00981A74B9B4500F03E
:1085D000538103F580639B4500F06181A34A934575
:1085E00014BF4FF0FF320322DBF80010B9F804305B
:1085F000208999F868A021F040014FF0010C9842C1
:1086000084F824C0CBF8001040F00E8199F80C30AB
:10861000A17A994224D096490193C2EB021201EB50
:10862000C202009292F8C40D002B00F0E3800DF01E
:1086300097F9019B38B1009A4E2192F8C72DFFF7A8
:108640007BFE99F80C30DBF8002022F00102CBF819
:108650000020DBF8002022F00202CBF80020A372F9
:10866000DBF8003043F04003CBF80030236A9A680F
:10867000002A00F0278100201433844653F8101C90
:10868000944401EA050E31B162694AB3BEF1805FDC
:1086900026D0B64524D053F8141C143301EA050241
:1086A00021B1B2F1805F1BD0B24219D053F80C2C2B
:1086B0000130002AE2D1237B93B1BAF1000F0FD031
:1086C000012800F20881BCF1070F00F2048100EBE1
:1086D00080029200236A1A44137B002B00F0FB8077
:1086E000236A9B684FF0000A002B64D0BAF1000F98
:1086F00002D09AF80C302BB1D9F8083013B11A68AF
:108700009B889362236A62681F68236A5868236A99
:10871000D3F808E05368BEF1010F23F4805353608F
:1087200014DD714693689B07FCD5002F37D037F8CE
:10873000023B93819368DB07FCD5D36808B120F82E
:10874000023B02390129EDDC0EF0010E536843F4BF
:1087500080535360BEF1000F0CD093689907FCD58D
:10876000002F45D03B7813739368DB07FCD5D368A3
:1087700000B10370236A1B7B002B31D1236A1B6974
:1087800083B1236AD9F874001B69984701280ED079
:10879000022807D10023236203B0BDE8F08F4FF613
:1087A000FF73C6E7D4F820A0236A14332362236A38
:1087B0009B68002B9AD1236A1B68002B00F09C80D9
:1087C000236AD3E900912162D9F80040D4F804B0BB
:1087D0000022C345C3E900227FF4F7AE002203E77D
:1087E000D9F80830002BC9D01A689B889361C5E777
:1087F000FF23B8E70DF0B4F8019B38B1009A2E21A1
:1088000092F8C72DFFF798FD99F80C30DBF800209F
:1088100042F00102CBF80020DBF8002042F0020217
:10882000CBF80020A3721BE71946B3F5807FA8BFE1
:108830004FF48073022BB8BF0223DBF80000002B3B
:1088400093FAA3F3B3FA83F308BF4FF0FF33013B6E
:1088500020F0380040EAC303CBF800302181D5E690
:108860000080FFFF0080012000380040003C0140F4
:108870007829002000300140204FB9F804103B68EF
:10888000208999F868A023F040030122884284F8E7
:1088900024203B603FF4BAAEC1F34F03C5E7DBF8D9
:1088A0000030B9F80410228999F868A023F0400339
:1088B00001208A4284F824004FF00202CBF80030F5
:1088C000EAD1A3E6237B002B3FF40AAFBAF1000FF5
:1088D0007FF400AF04E7D9F8000000214DF088F8DC
:1088E000D9F8083013B11A689B889362484603B0E0
:1088F000BDE8F04FFFF7DCBA23624DE700380040D7
:1089000008B1002218E57047F8B5CB7813B90025F7
:108910002846F8BD00F110070C460646897838460F
:108920000CF052FB05460028F1D0E0780DF018F865
:10893000B06123780133DBB210B1C371222383719C
:108940000D21FFF7DDFFB069FFF70CFB0D4AD2F8F0
:108950003438632BFBD90C480CF020FBB08238462E
:108960003EF034FB074630B9E0780CF0F9FF0DF02B
:1089700057F83D46CCE7306986F8B8704CF0BAFD40
:10898000C6E700BF8018002040420F002DE9F84FD5
:10899000204F642303FB00730446D3F8F05B002DE3
:1089A00000F0A881D3F8F86B1EB1B379002B40F02A
:1089B000A181642303FB0473D3F8FC9BB9F1000F7E
:1089C00004D099F80630002B40F09481631CDBB290
:1089D00016B11522B271F371B9F1000F04D016224D
:1089E00089F8062089F80730287E49F049FD30468D
:1089F000FFF7B8FA4846FFF7B5FA11213046FFF7FE
:108A00007FFF11214846FFF77BFF4FF009084FF029
:108A1000330A04E0782900200A2010F057FB304682
:108A2000FFF780FC10B9BAF1010AF5D13046FFF723
:108A30009FFA052010F04AFB3046FFF793FA052015
:108A400010F044FBB8F10108E1D13046FFF790FA8D
:108A5000052010F03BFB4846FFF78AFA4FF0640B05
:108A6000052010F033FB0BFB04FB304607EB0B0A31
:108A7000FFF778FA052010F029FB4846FFF772FA55
:108A80009AF8023C9AF8002C002B14BF3E211E21BC
:108A90003046FFF779FC9AF8023C9B4E9AF8012C7D
:108AA000002B14BF3E211E2148465E44FFF76CFC9C
:108AB0004C22414630464EF001FDDAF8F03B9FED86
:108AC000937A5B68CAF8083C914BBAF804BC9A6880
:108AD000904B9FED915AC2F302221344B0EE084A24
:108AE00093F8C03203F01F028C4B5B68D34007EE53
:108AF000903AF8EE677AC146C7EE275A07EE90BA69
:108B00009FED877AF8EEE77A25EE844AC7EE274A8A
:108B1000DFED847AB0EE007AE5EE877AA5EE875A2B
:108B200074EEE72A37EE856AF7EE003ABBF5C87FA8
:108B300040F2145309F1010ED8BF194607EE90EA2E
:108B4000D5BF642332234FF4967078200344B8EEE7
:108B5000E77A07EE903A27EE257AF8EEE76AD8BF73
:108B60004FF4167C86EE873AC4BF4FF4827C4FF4F4
:108B7000FA7101EB0C0373EE636AFCEEE67A17EE12
:108B8000902A07EE90CAB8EEE73A07EE903A23EE45
:108B9000243AF8EEE77AC3EE276A36EEC53A72EE6B
:108BA000E66AC3EE077A77EEE37AFCEEE77A17EE31
:108BB000901AC6EE877A77EEE37AFCEEE77A17EE44
:108BC000903A03F1020C0CEB010A07EE90AAF8EEC2
:108BD000677AF0EE466AE7EE276AF4EEE64AF1EECF
:108BE00010FA00F389805FFA82FCBCF10F0F00F2EB
:108BF0008580323807EE900AF8EEE77A77EEC47A8D
:108C0000C7EE876AFCEEE67A17EE90CA5FFA8CF040
:108C10000F2873D888B2FF2870D898B2FF286DD873
:108C200040EA0973100500F07F604FEA0C4202F43D
:108C30007F02034313433C4A02EA012143EA01084D
:108C4000642000FB047401230027C4F8143CC4F81A
:108C50000C8CC4F8107CC4F8187CC4F81C7CC4F8D4
:108C6000247CC4F8287C30464BF0B2F894F8493C98
:108C7000202BD9B21AD194F8483C012B16D02423CA
:108C800084F8493CD4F8083C1A6822F001021A60C2
:108C90001A6822F480521A601A681A601A6842F040
:108CA00001021A6084F8491C84F8487C95F91A007E
:108CB000002149F03DFB95F91A30AA7E002B07DB15
:108CC00002F01F0101228A405B09184941F8232064
:108CD00095F91900002149F02BFB95F919306A7EAE
:108CE000002B07DB02F01F0101228A405B090F49BC
:108CF00041F82320BDE8F88F013164E7BEF10F0F82
:108D00009ED0F14612E700BF80350020286B6E4EE2
:108D1000001002409C770508000016430000002068
:108D2000002474490000704200FFFF0000E100E0F1
:108D30000E4B70B5D3F8B465002E15DD0C4C002534
:108D400003E0B54204F120040ED0237F0135002B4F
:108D5000F7D0E06800220028F3D0217DFFF7ECFA7D
:108D6000B54204F12004F0D1012070BD7829002023
:108D7000181C0020F8B590F8BE311C09013C052CE8
:108D80000FD81B4E06EB44020546B2F8C80203F0AA
:108D90000F0340FA03F2D20703D595F8C971012FEA
:108DA00001D00120F8BD07FA03F3013B1840344419
:108DB0004CF0C0FE94F8D4220E49104451F83020F3
:108DC00001EBC00110698B881840EBD0002395F8A7
:108DD000BF2185F8C93108460221FFF7ADFAD5F861
:108DE0002021136843F0080338461360F8BD00BF24
:108DF0009C77050818390020800000F1804000F5BC
:108E000014500068704700BF800000F1804000F5FA
:108E100014500160704700BF244B2548996D254AC6
:108E200010B441F080519965996D83B001F0805183
:108E300001910199016841F480710160996D41F4DB
:108E400080619965996D01F4806100910099D3F872
:108E5000901041F40041C3F89010FF24CA20532120
:108E6000546250625162D3F89430DB0014D4124B38
:108E700012490022C3F80425C3F80825C3F80C25BD
:108E8000C3F81025C3F81425C3F81825C3F8001536
:108E900003B05DF8044B7047074A084BD2F8002531
:108EA0009A42E4D103B05DF8044B704700100240D1
:108EB00000700040002800400020004031666542FC
:108EC000F0B500F1F8020446D0F82801474BC1B2D2
:108ED0000839A3FB013183B0A3680192090901316C
:108EE00020F0FF001E684AF083FDD4F8E810019AD4
:108EF0000023012984F8EC3004F1BC071AD00429BE
:108F000018D0102966D0402914D0B1F5807F5DD0EB
:108F1000B1F5806F5AD0B1F5805F63D0B1F5804F65
:108F200054D0B1F5803F0CBF6FF0080C6FF4006CAB
:108F3000382301E06FF0080C06F118053046E958B7
:108F400001EA0C01E950D4F8E8104AF031FAD4F8FB
:108F5000E830012B19D0042B17D0102B12D0402B46
:108F600013D0B3F5807F2DD0B3F5806F2AD0B3F541
:108F7000805F32D0B3F5804F24D0B3F5803F06F147
:108F8000500502D04FF4006100E008212B68D4F8AE
:108F900028010B4310212B60144BC4F8C410C1B23C
:108FA0000839A3FB013109093A46013120F0FF00DD
:108FB0004AF0D8FCD4F82821136843F00203136068
:108FC00003B0F0BD06F11C050821DFE76FF0080CC7
:108FD0000423B1E76FF4006CAEE706F11C054FF413
:108FE0000061D3E76FF4006C0423A5E7CDCCCCCCB3
:108FF0002DE9F04F8E4B2DED028B1C7885B034B9E6
:109000000124204605B0BDEC028BBDE8F08F884DF1
:10901000D5F8343808EE103A0CF086FF854B0190F5
:1090200093F8DC31002B00F0FB80834B05F69C07A6
:10903000A3F588723D4603970026A3F5357B1C46B1
:109040001746DBF8E83B019AD31A04D4D5F8F02090
:109050009342C0F2C980764B4FF49A7202FB0633FA
:1090600093F8883903F0FF020092002B00F0828011
:10907000AB68A9891A68D5F828315B681FFA83F8AC
:10908000D368C8F1160823EA0103B8F1070FD360CB
:1090900070D9DBF8CC310133CBF8CC31D5F8303195
:1090A00002939E4600225EF804CB012191468A4637
:1090B00060461CE0DEF800C0B9F1140FACEB000311
:1090C0001EDC13F1080048BF03F11700031109EB80
:1090D0002019604603F1FF3C013102FA03F3884591
:1090E0000AFA0CF242EA03020EF1040E08D3884594
:1090F000E0D8C9F11503DEF800004FF01509E9E7E3
:10910000B9F1150F67D14D48C2F38423C2F344115E
:1091100000EB830300EB8101D3F8DC32D1F8DC12E1
:109120001B0243EA011302F01F0100EB8101C2F3AD
:10913000C43200EB8202D1F8DC12D2F8DC220B43FD
:1091400043EA023383EA132282EA121202F00F0288
:109150000F2A40D1C3F30F134FF6FF7293423AD058
:10916000B3F5606F47D0BB81009918EE102A2046F6
:109170000BF0B8FE2846FFF7A3FE2E4B93F8DC3128
:1091800001369E4204F15C0407F1140705F59A7557
:10919000FFF657AF01210022039F8BF8C812CBF8CE
:1091A000E82B002B3FF42CAF4FF49A7202FB0373B1
:1091B00097F8B420D7F8E80012F0020FBA681168E7
:1091C0000A6A07F59A7714BF42EA80020243BB425B
:1091D0000A62EDD114E7DBF8C8310133CBF8C831AE
:1091E000BEB100230093BFE70024204605B0BDECCC
:1091F000028BBDE8F08F9BF8452102EB42020BEB9E
:10920000C202324492F855210D2AACD18023BB779B
:10921000AAE702990A4858224EF028F90096A3E7D7
:10922000084A012182F8C812C2F8E83BE9E600BF0B
:1092300080180020703A00204C2C00209C770508F4
:10924000E82B002078290020F8B5D0F8201124233D
:10925000C0F8A0310A68002322F001020A600B6006
:109260004B608B6090F805C0C0F8A83180F89C3145
:10927000C0F8A031C0F83831C0F8A431C0F840318E
:10928000C0F834314FEA8C2303F480538268C0F86D
:1092900028314FEA0C33C0F8242103F40053C04AAC
:1092A000C0F82C314FEA0C2303F480639142C0F8DC
:1092B000303104BF0423C0F844310379044600F57B
:1092C000907513F001001CBF0422C4F8342113F080
:1092D000020305D0D4F8342142F00802C4F8342146
:1092E0001CF0010F0DD048B1D4F8482142F0020221
:1092F000C4F848214FF48032C4F85021002B40F0CC
:10930000F780A84B03F12C0053F8042B944200F093
:10931000B5809842F8D11CF0080F40F0C580D4F811
:10932000A031002B00F00D812423C4F8A0310B687C
:1093300023F0010328460B6043F0D4FE012815D02A
:10934000D4F84831002B40F00A81D4F820315A6813
:1093500022F490425A609A68284622F02A029A60C3
:109360001A6842F001021A604AF0FEFB2379D9071D
:109370005ED5D4F8FC20002A00F0D080D4F8043167
:10938000E263802204F13C070026E264C4F8A030C6
:1093900020224FF48053C4E916233846C4E91166ED
:1093A000C4E914664AF062FD384641F027FCD4F85F
:1093B000A431C4F89871202B656634D1626992B3E8
:1093C000E36899B279B394F89C0101282BD0A4F8F2
:1093D0007C117549A166754994F86000E16674498D
:1093E000216701214FF0220C8842C4F8A861C4F81B
:1093F0007821666784F89C11C4F8A4C10AD094F857
:10940000610084F860100128D4F8201100F0AF80CA
:1094100084F86060102100222023C4F8A81184F889
:109420009C21C4F8A031E26B23795268C4F814215E
:109430009B0772D5D4F80021002A64D00023C4E928
:109440002C33D4F80811C4F8A830C4F8B8304FF45D
:109450008053C4F89C2004F19C061022C4F8BC3050
:1094600080233046C4E92812C4F8AC304AF0FEFC30
:10947000304641F0C3FB002866D0FEE7002C3FF4E5
:109480004AAF94F8C831002B3FF445AFD4F84831C7
:1094900043F00803C4F848311CF0080F4FF40043B0
:1094A000C4F858313FF43BAFD4F8A031002B53D06F
:1094B0002423C4F8A0310B6823F0010328460B6075
:1094C00043F010FE01283FF451AFD4F84831002B8F
:1094D00049D1D4F820315A6822F490425A609A68EF
:1094E00022F022029A609A68284642F0080236E783
:1094F000D4F8483143F00103C4F848314FF4003345
:10950000C4F84C31FDE6D4F8AC311A6842F0800260
:109510001A601A6842F040021A60F8BDD4F8AC2113
:10952000116841F480711160916841F0010191600E
:10953000116841F020011160116841F010011160C3
:1095400076E784F89C31EFE6D4F89C30C4F8946157
:10955000C4F8C4505860F8BD84F89C31A8E7284688
:1095600044F01EFCF1E6284644F01AFCB1E79BB239
:109570002431384641F0D6FB00287FF44BAFD4F8B5
:10958000203184F89C011A6842F480721A609A684B
:1095900042F001029A609A6842F040029A6042E703
:1095A00000800040543C002005B2040839B2040891
:1095B0003DB2040870B5EFF31185502383F3128890
:1095C000D0F800311B6813F0010303D0EDB285F32E
:1095D000118870BDD0F8A021D0F8A4110A4302F080
:1095E0002102212A0446F1D0D0E909218A424AD039
:1095F0009CBF1A460069A26288BF531AD4F8A02102
:1096000098BF431A0026202A9BB284F8B061DDD1AE
:10961000A2695118DAD0002BD8D094F89C21012AE5
:10962000D4D0D4F89401A4F876314FF0010C212263
:10963000C4F8A861C4F87011A4F8743184F89CC10E
:10964000C4F8A02140B31A4A90F824E0C262194A33
:109650000263E645184A42638663D4F8202108D0A5
:1096600080F824C090F825C0BCF1010F0FD080F81D
:109670002460102100222023C4F8A81184F89C2122
:10968000C4F8A031A2E7012380F8B0319EE7283268
:1096900041F048FB0028ECD1D4F8203100224021D1
:1096A000196284F89C219A6842F080029A608DE7E2
:1096B000DDB1040801B204083DB2040870B5D0F869
:1096C0002041E3699906054614D5606AEB6AC0B289
:1096D000002B74D0296B9847D5F82041236823F4D8
:1096E00080732360A36823F00103A360A36943F0A0
:1096F0000803A361E369DA0744BF01232362E36936
:109700009B0744BF02232362E3695E0744BF04232F
:109710002362E369180744BF08232362E3695906FB
:1097200014D54023236295F8C961002E31D0D5F8B5
:109730000031CBB12846FFF73DFF95F8B0311BB1A2
:1097400095F8C961002E4BD0D5F82041D5F80031ED
:1097500063B1E369DB0606D56B6B13B19847D5F8A7
:1097600020411023236270BDD5F82041E3691A0619
:10977000EFD5D5E9092393422DD0AA69D25CD2B2A4
:10978000A2622A690133B3FBF2F102FB1133AB622F
:10979000DFE795F8BE010CF0E3F8236823F0080337
:1097A0002360012385F8C9310028C0D0324620212A
:1097B000FEF7C2FDD5F80031002BBBD1D4E7EB6931
:1097C0006A69D054EB69EA680133B3FBF2F102FB3A
:1097D0001133EB6180E7236823F080032360B8E74F
:1097E00095F8BE010CF0BCF8D5F8204123680122A1
:1097F00023F00803236085F8C9210028A6D032464B
:109800002021FEF799FD9FE72DE9F04FDFF8149333
:109810001F4609EB800383B0D3F8E441002C7CD0D1
:10982000D4F8B851B74B23606B68C4F8AC312B6BDC
:109830006361EB6AA361EB8EE360AB8E2361B24B95
:10984000A160C4F8B43195F800A009EB4A03904632
:1098500093F91022511C06464FEA4A0B40F0B5809E
:10986000D94499F91132013340F09A80D4F80001BB
:1098700088B1A64B00225968884203F1240302F103
:10988000010200F0E680102AF5D1A14B93F8642183
:10989000002A00F01881D4F8FC0088B19B4B00210D
:1098A0005A68904203F1240301F1010100F0A48001
:1098B0001029F5D1964B93F86421002A00F00B8112
:1098C0006B68C4F8203195F82400002840F091809E
:1098D00094F8BE010CF044F8022117F0080294F845
:1098E000BC9184F8C91103461BD068B317F0510F1F
:1098F00014BF0A211A210B2217F0010F06F10106ED
:10990000C671827114BF4023202394F8BF211943EC
:10991000FEF712FDD4F8FC305BB3204603B0BDE87F
:10992000F08F18F0020F0FD070B14FF00B0C80F8D1
:1099300006C03B0606F1010C80F807C000F1D48098
:1099400094F8BF21FEF7F8FC18F0010FE2D048466A
:109950000CF006F80028DDD00C220136C6718271A9
:1099600094F8BD210221FEF7E7FCD4F8FC30002B6F
:10997000D3D195F8291095F92700890948F0D8FC2A
:1099800095F9273095F82720002BC6DB61485B0945
:1099900002F01F02012101FA02F240F82320BCE785
:1099A00099F9102251460520FEF7FCFA00283FF4F1
:1099B0005DAF4368C4F8FC308368D4F80001C4F894
:1099C000043100287FF455AF65E751460420FEF7C7
:1099D000E9FA00283FF444AF4368C4F80031D944A1
:1099E0008368C4F8083199F9113201333FF43EAF6E
:1099F000D6E748F045FD6BE7C9B2454B013901EBAD
:109A0000C10103EB81012B7891F888210133DBB28E
:109A1000002A7FF455AFD1F86C0181F889313E4BB3
:109A200098420CBFA020A1200C2381F8883148F077
:109A300027FD3A4A6B68916C41F004019164926C85
:109A400002F004020192019A03F12402C4F81C21DD
:109A500037E75FFA82F92E4B09F1FF3202EBC202BF
:109A600003EB82032A7893F888110132D2B20029DD
:109A70007FF411AF83F889212748D3F86C21824203
:109A80000CBFA020A1200B2283F8882148F0F8FC0D
:109A9000224B23499A6C42F004029A649B6C95F81D
:109AA000282003F004030093009B48462346FEF75A
:109AB000BDFB6B68D4F8FC002833C4F818310028CB
:109AC0007FF4ECAEFCE62A78013283F865210B22A4
:109AD00083F86421DFE62A78013283F865210C22BD
:109AE00083F864216B68ECE6D4F820110B68012739
:109AF00023F008030B6084F8C9712021FEF71CFCD9
:109B000022E700BFF87A0508758D00086C01002077
:109B10000000002000E100E00000024000100240D0
:109B2000F9620008703A0020BFF34F8F0549064BD9
:109B3000CA6802F4E0621343CB60BFF34F8F00BFEB
:109B4000FDE700BF00ED00E00400FA052DE9F84351
:109B5000BFF35F8F474A00210B46C2F894100846B6
:109B6000C2F898300133112BC2F89C10C2F8A01033
:109B7000F6D10523C2F89430BFF34F8FBFF36F8F38
:109B8000BFF35F8F3C4C3B4FC2F894000026012589
:109B900020E0002A3AD0D4F80080637AA17AE07AF3
:109BA0001B0643EA017343EA4203217B627BC7F849
:109BB000986043EA804343EA414343EA0243013663
:109BC00043F00103032EC7F89C8004F11004C7F88A
:109BD000A0301CD06368227A002BDAD0D4F8008041
:109BE000002ADAD128F01F09A3EB0909B9F1200FE7
:109BF00038BF4FF0200948464DF0E6FB431E05FAFA
:109C000003F2914508BF1846C2B2C6E7FEE7052336
:109C1000C7F89430BFF34F8FBFF36F8FFB68174CBB
:109C20004FF6FF02134043F0052343F47A03144A2E
:109C3000FB60144BD2F89420C3F8282243F02CF98F
:109C4000D7F8FC20104BB0FBF4F042F080720021FA
:109C5000C7F8FC2059601A680C4942F001021A60EA
:109C60008B680B4A43F480438B60C2F8AC01BDE8BB
:109C7000F88300BF00ED00E0D403002040420F0055
:109C800000100240703A0020001000E00070004018
:109C90007829002008B572B6FFF746FF03689B0AD3
:109CA000A3F58013542B59D8F0B5404C14F803C0D9
:109CB000BCF10B0F51D840798508002953D03C4C9A
:109CC0000CEB8C030CEB43032B4404EB8C154FF093
:109CD000020ED5F82C62374DF76880080EFA00F0B6
:109CE00005EB830E3843CEF89815CEF8A825F06022
:109CF0004FEA8C10EFF3118E502383F312882C233C
:109D000003FB0CF3E918D1F8942542B3C1F8B82548
:109D1000131D294A294E2C2101FB0CF10E4414314C
:109D20000A4452F8041B19B1196052F8043C043378
:109D30009642F6D100225FFA8EFE1A608EF31188E9
:109D40002C2303FB0C552044D5F8B835D0F82C2231
:109D50003BB3D36843F00103D360F0BD7047164AAC
:109D600024331344D6E7124C0CEB8C030CEB430367
:109D700028462B4404EB8C150227D5F82CE20D4D18
:109D8000DEF80C6007FA00F026EA0000CEF80C00BE
:109D900005EB8300C0F89815C0F8A8254FEA8C1091
:109DA000A8E7D36823F00103D360F0BD9C770508D2
:109DB000703A002080180020141E0020381E002059
:109DC00003689B0AA3F58013542B1ED80F4AD35C5B
:109DD0000B2B1AD861B10E49427901EB831392081B
:109DE000D3F82C120223C86893400343CB6070471A
:109DF0000749427901EB83139108D3F82C02022220
:109E0000C3688A4023EA0203C36070479C77050851
:109E1000703A002003689B0AA3F58013542B0ED8D8
:109E2000074AD25C0B2A0AD80649437901EB821211
:109E300099080223D2F82C228B40DB431361704730
:109E40009C770508703A002001490248FDF79CBA4A
:109E5000141E0020002C014010B5064C064804F2E8
:109E60009451FDF791FA04F5E4610448BDE810400F
:109E7000FDF78ABA80180020002C01400044014000
:109E800002494FF08040FDF77FBA00BF401E00201E
:109E900001490248FDF778BA6C1E0020000400401A
:109EA00001490248FDF770BA981E002000080040E2
:109EB00001490248FDF768BAC41E0020000C0040AA
:109EC0002DE9F843194E3569F3681D400FD0DFF8CE
:109ED00060804FF00047B5FA85F227FA02F3DB43C2
:109EE0001F2A336105EA030503D0002DF3D1BDE835
:109EF000F883D8F89836A3B103F1FF3900231FFA8D
:109F000089F9C8F89836D8F89446002CEDD0236823
:109F10002046494698476468002CF8D1002DDAD1D4
:109F2000E5E7F16A1FFA81F9EDE700BF0010004094
:109F30008018002001490248FDF726BA481F00207A
:109F40000034014001490248FDF71EBA481F0020B5
:109F50000034014001490248FDF716BA741F002081
:109F60000040014001490248FDF70EBACC1F002015
:109F70000048014001490248FDF706BAF81F0020D9
:109F8000005001402DE9F0414FF40F728CB00021D8
:109F90005D485E4EDFF880814DF090FA5C4B1A6EA2
:109FA00042F400621A661A6E02F400620092009A8D
:109FB0009A6D42F001029A659A6D02F001020192D7
:109FC000019A9A6D42F002029A659A6D02F00202BD
:109FD0000292029A9A6D42F004029A659A6D02F01A
:109FE00004020392039A9A6D42F008029A659A6DF0
:109FF00002F008020492049A9A6D42F010029A65E7
:10A000009A6D02F010020592059A9A6D42F02002B4
:10A010009A659A6D02F020020692069A1A6E42F430
:10A0200000521A661A6E02F400520792079A1A6ECC
:10A0300042F480321A661A6E02F480320892089A4C
:10A040001A6E42F400321A661A6E02F40032099255
:10A05000099A1A6E42F480221A661A6E02F480225D
:10A060000A920A9A1A6E42F480121A661B6E03F460
:10A0700080130B930B9B06F62C2537464FF080413F
:10A0800006F521644246002301E054F83320914252
:10A090000BD001330C2BF8D100201C3748F0F0F91D
:10A0A000AF420CD057F81C1CECE71A4A02EBC30372
:10A0B0001C3793F8BC0D48F0E3F9AF42F2D1164FCC
:10A0C000164C4FF080413A46002301E054F833200B
:10A0D00091420BD001330C2BF8D100201C3648F0F4
:10A0E000CFF9AE420CD056F81C1CECE7094A02EB43
:10A0F000C3031C3693F8BC0D48F0C2F9AE42F2D14E
:10A100000CB0BDE8F08100BF141E0020447B0508A0
:10A11000001002409C770508002C0140548505087A
:10A12000800AA0F5801054280CD8074B1A5C0B2A23
:10A1300008D8064B03EB8213D3F82C22136843F0A4
:10A1400001031360704700BF9C770508703A002038
:10A150001F4B984227D003F50063984223D003F5A4
:10A16000406398421FD003F5806398421BD003F5EB
:10A170008063984217D003F50063984213D01549C5
:10A18000154B8A681548C2F3022213448A6893F873
:10A19000C032406803F01F0312F4E06F20FA03F0AE
:10A1A00000D0400070470B490B4B8A680B48C2F344
:10A1B000C22213448A6893F8C032406803F01F0338
:10A1C00012F4605F20FA03F0ECD04000EAE700BF31
:10A1D000002C0140001002409C7705080000002080
:10A1E0002DE9F04F93B0AB4B0193AB4BDFF8CC8232
:10A1F0000024A3F61865A94FDFF89CA2BB0AA3F5BB
:10A200008013542B4FF000064CD8EB5C0B2B49D835
:10A2100018F90390A24B93F87E35012B40F0F8809B
:10A22000B9F1010F34D14FF0000B594648460FF0F9
:10A23000FFFE0FF08BFF037813B1542B40F0F0803A
:10A240000BF1040B1FFA8BFBBBF1100FEDD1ACB37C
:10A250004FF0000C8F4A00210BE0EB5C0B2B0FD86A
:10A2600018F903304B450ED00131A14202F1E4024E
:10A2700021DA906803689B0AA3F58013542BECD96C
:10A2800000234B45F0D143799AF805009842EBD171
:10A290000136082E45D05AF81C7FBB0AA3F580135F
:10A2A000542BB2D97E4B93F87E35013B012BEFD96D
:10A2B0004FF00009B7E7BCF1000FE9D1DAF8080068
:10A2C000784B002205E00132102A03F10C0300F064
:10A2D0008F8359688842F6D152B29AF805103846F1
:10A2E000FDF7B2FE704A406800235168884203F1CE
:10A2F000010300F08A80102B02F12402F5D14FF007
:10A30000FF336A4A03EBC30302EB830393F88831FC
:10A31000002BBDD1604BC6EBC60603EB8606019B46
:10A320009E60019B0134E433042C01937FF463AFFE
:10A330005F4F002607F59E795E4BD3F8B435B342E4
:10A3400060DDD7F80C80B8F1000F5BD05A4BB8F83D
:10A3500004105D68D8F800003A7C0192B1FA81F3EC
:10A3600000F1384C002D02934FEA9C2CC3F11F0AD8
:10A3700074DD484A002404E00134AC4202F1E402F6
:10A3800069D013686345F7D1424AE42303FB0424F0
:10A39000019B3B744FF0030C0136C7F804A0C7F8CB
:10A3A0000C80BC6188F806C088F80760226CA36C3A
:10A3B0004FEA4A050CFA05FC42EA0C02226401222B
:10A3C00002FA05F51D433C4BA5641B7873B3E36C9F
:10A3D00002FA0AFA43EA0A03E3648161D4F89400BA
:10A3E0001FFA8AF1FBF74AFE2046FBF71BFE01230A
:10A3F000082E3B777B7789F8113007F1200709F1A8
:10A40000180999D113B0BDE8F08FDBB2013B78E7B2
:10A41000022B7FF408AFB9F1080F3FF404AF37E720
:10A420004FF0010C002C7FF415AF31E7029DC5F110
:10A430002F0C02FA0CFC02FA0AFA1A46E36C0D041D
:10A4400043EA0C03E3641FFA8AF18561D4F89400AF
:10A45000FBF714FEC8E7032C00F3EC80164AE42354
:10A4600003FB05231869002800F0AC825422C3F8CE
:10A4700008C083F8E8200CF1010C0F4A83F8E9C00A
:10A480006B1C5360064B074C93F8953504930022E0
:10A4900083681BE088180020B4850508003401405B
:10A4A000703A0020AC0000206C0100200000002069
:10A4B000181C002078290020801800201CF50508B1
:10A4C0000132102A04F10C0400F0928261688B4280
:10A4D000F6D141790068DFF8F4B252B2FDF7B4FD6D
:10A4E000AA4BD0E90141E42202FB0532C2E907414F
:10A4F000594600224B689C4202F1010217D0102AF3
:10A5000001F12401F6D1A24B93F86421AB46002A55
:10A5100000F048829F48A049A04AA14BC0F8BC1552
:10A52000C0F8B425C0F8C43513B0BDE8F08FD2B27E
:10A53000974B013AE42102EBC20203EB820201FBDA
:10A5400005F392490393194492F88831B1F8E80071
:10A550000693002BDED1039BA2F888015A0002EB80
:10A56000A302C2EB422202EB824252428D4B0869A7
:10A5700002EB420404EB041403EB840C8C238A4C9E
:10A58000006803FB02F204EB4202D8F80040CC6002
:10A59000C1E935233322C1F8A020C1F89CC0FFF7E0
:10A5A000D7FD039B814AD418049B062B00F0F7814A
:10A5B000072B7F4B7F49804A08BF19467F4B18BF46
:10A5C0001A46B0FBF2F2B0FBF1F17048E42303FB52
:10A5D0000503013A92B20139A3F8A410A3F86C2044
:10A5E000A2650022A4F85020E26562651A6904930E
:10A5F000039B106803F150016C4B194449F08CF82F
:10A60000049B1A6904921068036843F08003036096
:10A6100053790C2B13D8DFE813F09A0112001200C3
:10A6200012009301120012001200A1011200120088
:10A6300012008B01574A032382F894356AE7534A84
:10A64000E42303FB05235969026800234FF0600CE3
:10A650000C930F931193CDF828C001234FF4807C05
:10A66000CDF840C00B9322F0010202234FF00A0CF8
:10A67000CDE90DC302600AAA48F09AFE434BE422DA
:10A6800002FB0532049B52691B680593012A4FF0B7
:10A6900000031DD0042A00F09381102A00F0978156
:10A6A000402A00F09881B2F5807F00F09281B2F5E7
:10A6B000806F00F09481B2F5805F00F09281B2F576
:10A6C000804F00F09081B2F5803F0CBF0823092332
:10A6D0003B4A1344059A93F8F81E93F804CF1832B6
:10A6E0000823885803FA0CF318438850049B187900
:10A6F000002840F03F81254BE42202FB0532002375
:10A700001069D1690068026842F001020260DBF85A
:10A710000420914203F1010300F02881102B0BF17A
:10A72000240BF4D14FF0FF33194A03EBC30302EBC0
:10A730008303D3F86C01234B98420CBFA020A120C7
:10A7400047F09EFE204A1149936CDFF884E043F005
:10A7500004039364E42303FB05131969936CD1F894
:10A7600000C003F004030993099B4B7907490C2BA4
:10A770009BBF134A02EB43030022B3F8102FE423DC
:10A7800003FB05131A8300232BE000BF8018002071
:10A7900000000020703A0020614101085D4101087D
:10A7A00069410108444000207443002088180020BB
:10A7B000105522004495080040771B00D0DD0600AC
:10A7C0009C77050800000240001002406C01002048
:10A7D000342F00208C4500F000810133042B00F061
:10A7E00004815EF833100029F4D183490846D1F87A
:10A7F000B8150131C0F8B81500EBC301DB00C1F892
:10A80000BCC57344069899880A439A807B492346BD
:10A810009022FDF70BFD7A4AE42303FB05254FF058
:10A82000000BE869026842F002020260026842F02E
:10A830000A020260C4E91DBB2A6AC4F88C204FF4E6
:10A840004052C4F8902080231022E3672267D5F895
:10A85000A020C4F88820EA686A4BC1B218320839CF
:10A86000A266A3FB01214FF40072C4F88020039A72
:10A87000654B68321A444FF4006CD5F89C30E3669F
:10A880000909013120F0FF00C4F884C049F06AF8DA
:10A89000039AE8695C49A0320A4401682162416870
:10A8A00061628168A162C168E162C4E92ABBC4F83F
:10A8B000B0B0296AC4F8C4104FF4005C8023C4F817
:10A8C000B430C4F8C8C0D5F8D830C4F8C030EB688C
:10A8D0001033C4F8A030C1B24A4B0839A3FB013190
:10A8E0004FF48073C4F8B830D5F8D430C4F8A4302D
:10A8F00009094FF48063013120F0FF00C4F8BC3037
:10A9000049F030F8EB69B8F804101A6822635A6805
:10A9100062639A68A263DA68E2631A68D8F8000092
:10A9200042F002021A601A6842F00A021A602FE529
:10A93000334AE42303FB05234FF48051596183E636
:10A940002F4AE42303FB0523102159617CE62C4A9E
:10A95000E42303FB05230121596175E6284AE4231A
:10A9600003FB05234FF4807159616DE6DBB206935A
:10A97000013BD9E60AF0F4FF079050B1049B022195
:10A98000DA79FDF7D9FC079B5422DA80049B1B6817
:10A990000593059A536C43F400435364ABE61B499B
:10A9A0001B4A0EE6164A4FF0E40808FB0B2898F8FD
:10A9B000E92098F8E81083F8641183F86521A9E587
:10A9C000012385E6134A022382F89435A2E5022387
:10A9D0007EE604237CE603237AE6DB0011E7052309
:10A9E00076E6062374E6072372E600239B88FFDEE3
:10A9F00000235B68FFDE00BF78290020C5600008E7
:10AA000080180020CDCCCCCC88180020882A1100DA
:10AA1000A0BB0D00703A0020F8B5830AA3F580139F
:10AA2000542B1AD814460D4AD65C0B2E15D80C4D53
:10AA3000013905EB861789B2C7F83812FFF788FB92
:10AA4000B0FBF4F2013AD7F82C02C7F8302207F530
:10AA50000C71BDE8F84042F057BAF8BD9C77050884
:10AA6000703A00202DE9F843830AA3F58013542B94
:10AA70004FD81546434AD75C0B2F4AD8DFF81491BC
:10AA800009EB87160446D6F82C3283424FEA871822
:10AA90003FD0013989B2C6F83812C6F82C02FFF748
:10AAA00057FBB0FBF5F2013AC6F8302296F869225E
:10AAB0000023C6F83C32C6F83432C6F8403202F001
:10AAC000FF03002A58D0304909EB080501EB871134
:10AAD0000226D5F82C0285F86962043142F014FA96
:10AAE0002A4B01229C4285F8692214D0B4F1804F90
:10AAF00011D0A3F594339C420DD003F580639C42A2
:10AB000009D003F580639C4205D003F594339C4241
:10AB100001D0BDE8F88395F86832012BF9D0D5F85B
:10AB20002C3285F869629868194901409960174884
:10AB300085F8692209EB0802022182F86912834232
:10AB40005A6899681BD000F50060834217D000F561
:10AB5000E050834213D022F00072C84422F0700209
:10AB600021F080015A6001209960002388F8690271
:10AB700088F86832BDE8F88386F86832A3E722F4E3
:10AB80007002E8E79C7705089C3C0020002C0140FF
:10AB90008800CEFF703A00202DE9F04F0C460646A3
:10ABA000206885B0850AA5F58015BDF838109DF898
:10ABB0003C900191542D58D8DFF8008318F80550C7
:10ABC0000B2D52D81946FFF74DFF20686179B9F176
:10ABD000000F4DD1830A94F80690A3F58013542BEF
:10ABE000CE464ED9B24B1EF0020F00F0E48003EBCC
:10ABF000851201F01F07D2F82C220421B940176AF0
:10AC000027EA01071762176A3943AD011162516CD7
:10AC100041F4004151649768A6493940062906D09D
:10AC2000B1F5803F03D0116841F0010111605A195C
:10AC3000022182F86912D2F82C129E4A8F683A409B
:10AC4000062A06D0B2F5803F03D00A6842F001021E
:10AC50000A601D44012385F869326379706000F150
:10AC60003402D11831600021D15005B0BDE8F08F19
:10AC7000830A94F806E0A3F58013542B8EF00109A3
:10AC8000B0D818F803208A4B0B2AACD803EB8218F3
:10AC90004FEA490C4FEAC90909F0080798F8689289
:10ACA0000297B9F1010F0CF0020C4FEA82129AD010
:10ACB0004FF0010988F868924FF0020988F869920C
:10ACC00014296CD8DFE811F0A3016B006B006B0056
:10ACD00015006B006B006B00FA016B006B006B00E2
:10ACE0004C016B006B006B00FE006B006B006B0097
:10ACF000A60003EB0208DFF8C0A1D8F82C82D8F830
:10AD0000209029F01009C8F82090D8F82090D8F8A1
:10AD100004B029F0200949EA0C1CD8F8189029F051
:10AD2000807929F4E649D04549F4C04900F01682FB
:10AD30000AF5006AD04500F011820AF5E05AD045C4
:10AD400000F03A82DFF878A1D04500F00E820AF5D3
:10AD5000806AD04500F009820AF5806AD04500F08B
:10AD600004820AF5006AD04500F0FF81019FC8F80F
:10AD700004B0C8F81890C8F83870C8F820C0D8F8DF
:10AD8000187047F40067C8F81870D8F8187027F4DE
:10AD90008067C8F81870D8F81870C8F818701A4486
:10ADA000012782F869721EF0020F4FF0000782F847
:10ADB00068727FF41CAF03EB851201F01F07D2F815
:10ADC0002C220121B940176A27EA01071762176A86
:10ADD0003943116238498A424FEA85153FF417AF6B
:10ADE00001F500618A423FF412AF01F540618A42E9
:10ADF0003FF40DAF01F580618A423FF408AF01F5E1
:10AE000080618A423FF403AF01F500618A427FF41A
:10AE100002AFFCE603EB0208DFF89CA0D8F82C8216
:10AE2000D8F8209029F48019C8F82090D8F82090FC
:10AE3000D8F804B029F4001949EA0C5CD8F850900D
:10AE400029F0807929F4E049D04549F4C04913D06C
:10AE50000AF5006AD0450FD00AF5406AD0450BD0FC
:10AE60000AF5806AD04507D00AF5806AD04503D03C
:10AE70000AF5006AD04501D14BF4802B019FC8F838
:10AE800004B0C8F85090C8F84C70C8F820C0D8F882
:10AE9000507047F40067C8F85070D8F8507027F425
:10AEA0008067C8F85070D8F85070C8F8507076E7CE
:10AEB000703A002007000100002C01409C77050833
:10AEC0000040014003EB0208DFF8FCA2D8F82C8216
:10AED000D8F8209029F48039C8F82090D8F820902C
:10AEE000D8F804B029F4003949EA0C4CD8F850904D
:10AEF00029F4803929F07009D04549F0600913D050
:10AF00000AF5006AD0450FD00AF5406AD0450BD04B
:10AF10000AF5806AD04507D00AF5806AD04503D08B
:10AF20000AF5006AD04501D14BF4803B019FC8F877
:10AF300004B0C8F85090C8F84870C8F820C0D8F8D5
:10AF4000507047F00807C8F85070D8F8507027F0D4
:10AF50000407C8F85070D8F85070C8F850701EE751
:10AF600003EB0208DFF860A2D8F82C82D8F8209012
:10AF700029F48059C8F82090D8F82090D8F804B067
:10AF800029F4005949EA0C3CD8F81C9029F0807942
:10AF900029F4E649D04549F4C04900F0F3800AF5A8
:10AFA000006AD04500F0EE800AF5E05AD04500F086
:10AFB000F380DFF818A2D04500F0EB800AF5806A34
:10AFC000D04500F0E6800AF5806AD04500F0E180C7
:10AFD0000AF5006AD04500F0DC80019FC8F804B093
:10AFE000C8F81C90C8F84070C8F820C0D8F81C7089
:10AFF00047F40067C8F81C70D8F81C7027F4806705
:10B00000C8F81C70D8F81C70C8F81C70C7E603EBB1
:10B010000208DFF8B491D8F82C82D8F820A02AF0E2
:10B02000010AC8F820A0D8F820B0D8F804A02BF066
:10B03000020B4CEA0B0BD8F818C02CF4803C2CF017
:10B04000730C4CF06007C845039713D0DFF880C13C
:10B05000E0450FD00CF5406CE0450BD00CF5806C52
:10B06000E04507D00CF5806CE04503D00CF5006C92
:10B07000E04508D1029F2BF0080C47EA0C0C2CF09D
:10B08000040B4AF4407A039FC8F804A0C8F818706B
:10B09000019FC8F83470C8F820B0D8F8187047F08D
:10B0A0000807C8F81870D8F8187027F00407C8F80F
:10B0B0001870D8F81870C8F8187070E603EB02081A
:10B0C000DFF804A1D8F82C82D8F8209029F48079F0
:10B0D000C8F82090D8F82090D8F804B029F4007966
:10B0E00049EA0C2CD8F81C9029F4803929F073090E
:10B0F000D04549F060093BD00AF5006AD04537D009
:10B100000AF5E05AD0454FD0DFF8C0A0D04536D080
:10B110000AF5806AD04532D00AF5806AD0452ED033
:10B120000AF5006AD0452AD0019FC8F804B0C8F8D3
:10B130001C90C8F83C70C8F820C0D8F81C7047F0C4
:10B140000807C8F81C70D8F81C7027F00407C8F866
:10B150001C70D8F81C70C8F81C7020E6029F2CF0F8
:10B16000800C4CEA071C2CF0400C4BF4406BFDE5C6
:10B17000029F2CF4006C4CEA072C2CF4806C4BF4EE
:10B18000405BD1E7029F2CF4004C4CEA073C2CF4C6
:10B19000804C4BF4404B20E7029F2CF4004C4CEACF
:10B1A000073C2CF4804C04E7029F2CF4006C4CEA22
:10B1B000072C2CF4806CA7E7029F2CF0800C4CEA43
:10B1C000071C2CF0400CBDE5002C01400040014064
:10B1D0000034014070B504460068830AA3F580136B
:10B1E000542B03D82D4EF55C0B2D00D970BDFFF705
:10B1F00039FC2B4BA80103EB85150222D5F82C1244
:10B2000085F869228D68274A2A40062A06D0B2F5B9
:10B21000803F03D00A6842F001020A600344012023
:10B220002168214A83F869022048002301E050F890
:10B23000332091420AD001330C2BF8D10121002098
:10B2400047F076F81A4B01221A6070BD06EBC30373
:10B25000012193F9BD4D93F8BD6D204647F068F884
:10B26000002CC3DB124D640906F01F03012101FA13
:10B2700003F31B2E45F8243008D02E2EB6D12C20F7
:10B2800047F056F84FF480536B6070BD192047F0BB
:10B290004FF84FF000732B6070BD00BF9C7705081E
:10B2A000703A002007000100002C01405485050879
:10B2B00000E100E0A84BD3F80C25012A2DE9F0416C
:10B2C00000F08382A54AA64CD2F88830A54943F401
:10B2D00070038C42C2F8883004D0A34A2046121B67
:10B2E0004CF0C4F89D4BA1489C600168A04AA14D58
:10B2F00041F480710160D9684FF6FF0001400A43B4
:10B30000DA6047F045F8944BD3F80805FBF756F898
:10B31000994A136803F4C063B3F5806FD2F88030A4
:10B3200023F48073C2F8803049D0944B944AD3F808
:10B33000D087D3F8D867D3F8DC779368D26803F066
:10B340000C030C2B13D0082B15D08D4A8D4C136891
:10B3500043F480331360D4F8640D04E0D4F8643D02
:10B360001B1A642B2AD813689B03F7D506E002F05A
:10B370000302032AE9D1824B824C1B68804A9368FE
:10B38000D26803F00C030C2B36D0042B38D07C4A47
:10B39000136843F480731360D4F8640D04E0D4F8A8
:10B3A000643D1B1A022B09D813685905F7D5536859
:10B3B00023F0FE4343F0804353602DE0FEE7136823
:10B3C000714923F4C06343F4007313606B68322047
:10B3D00000FB03F3A1FB031351699B0C480503F128
:10B3E000010306D500E023B15169490503F1FF339C
:10B3F000F9D4614B5B6998E702F00302022AC6D1D7
:10B400005F4A1368536823F0FE4343F08043536060
:10B4100046F0BEFF0028D1D1594AD2F8943043F00B
:10B420000103C2F89430D4F8640D04E0D4F8643D0C
:10B430001B1A022BC2D8D2F894309B07F6D5D2F84B
:10B44000983043F00103C2F89830D4F8640D4C4AA8
:10B4500004E0D4F8643D1B1A022BAFD8D2F8983020
:10B460009907F6D5936803F00C030C2B00F071815B
:10B47000136823F080731360D4F8640D404A04E02D
:10B48000D4F8643D1B1A022B98D813689B01F7D49B
:10B49000D0683E49731E014048EA03130B4343EA58
:10B4A000072343F08053D3601368354943F080731A
:10B4B0001360D36843F08073D360D4F8642D05E043
:10B4C000D4F8643D9B1A022B3FF678AF0B689801C5
:10B4D000F6D5264B1A6811070BD41A6822F00F0212
:10B4E00042F008021A601B6803F00F03082B00D01B
:10B4F000FEE7234B1A68920140F11481D968DA689B
:10B50000DB6801F003010329C2F303120CBF2049D9
:10B5100020490132B1FBF2F21949C3F3062302FBC1
:10B5200003F3CA68C2F3416201325200B3FBF2F383
:10B53000194A934206D98B688B6823F0F00343F0D5
:10B5400080038B600E4A936843F003039360D4F842
:10B55000641D41F2883027E00020004000ED00E04B
:10B5600000F0012000000008D8F101200020024076
:10B570000003FA0500000020007000408018002041
:10B5800000100240703A002083DE1B430C809F01B4
:10B5900000127A000024F40000B4C404D4F8643D1E
:10B5A0005B1A834200F2D480936803F00C030C2BE7
:10B5B000F4D19368B64943F4E0639360936823F44D
:10B5C0007C5343F4E0639360936823F0F00393604B
:10B5D0000B6803F00F03082B00F2A580AD4CAE4EB4
:10B5E000A36823F4E063A360A36823F46053A3601B
:10B5F00041F052FCA368C3F30313334493F82C3F88
:10B6000003F01F03D840686046F0C2FE002840F0F7
:10B61000DB80D4F88820A14BA14922F00302C4F8B2
:10B620008820D4F8882022F00C02C4F88820D4F8AE
:10B63000882022F03002C4F88820D4F8882022F034
:10B64000C002C4F88820D4F8882022F44072C4F8DC
:10B650008820D4F8882022F44062C4F88820D4F8E6
:10B66000882022F44052C4F88820D4F8882022F49C
:10B670004042C4F88820D4F8882022F44032C4F82C
:10B680008820D4F89C2022F00302C4F89C20D4F82F
:10B69000882022F0407242F00072C4F88820D4F86A
:10B6A000882022F04062C4F88820D4F8882022F054
:10B6B000405242F00052C4F88820D4F8882022F08A
:10B6C000404242F00042C4F88820A26B42F48072EB
:10B6D000A263A26B22F48072A263724A5A601A6853
:10B6E00022F4FE4242F400521A601A6842F06002EC
:10B6F0001A60674A1160D3F80435A26802F00C02A0
:10B70000082A04D00C2A44D0042A40D06B68614A2D
:10B710009268C2F30312164496F82C2FD3406B6044
:10B72000BDE8F081E4E60B6823F00F0343F0080363
:10B730000B60D4F8642D41F288300B6803F00F03DE
:10B74000082B3FF44BAFD4F8643D9B1A8342F4D9E5
:10B75000CEE6D36803F0030290457FF42FAE013E9E
:10B7600003F0F002B2EB061F7FF428AE03F4FE42B2
:10B77000B2EB072F7FF422AE03F07842B2F1805F84
:10B780007FF41CAE13F0CC6F3FF4A3AE16E6464B2D
:10B79000BDE7E168E26801F003010229C2F3031288
:10B7A00002F1010208BF404BB3FBF2F3394AD16802
:10B7B000D268C1F3062103FB01F1C2F341630133F7
:10B7C0005B00B1FBF3F3A2E792E6324A374C00216B
:10B7D000C3F80C15D4F8641D136843F48073136028
:10B7E00004E0D4F8643D5B1A022B3CD813685D0575
:10B7F000F7D55368274D43F0804353600121D4F8B7
:10B80000640D916041F2883204E0D4F8643D1B1A63
:10B81000934228D8AB6803F00C03042BF5D1244BDA
:10B82000214A5A6046F0B4FDE8B94FF480732B60AA
:10B830002B60D4F8641D174B04E0D4F8642D521A21
:10B84000022A10D81A6812F00072F6D14FF4805014
:10B850004FF0FF31D8609A611962D3F8942042F416
:10B860000002C3F894204FF0E02300221A615A61CD
:10B870009A6172B60F49104A0B68106823F00703EB
:10B8800043F001030B6080F3088853689847FEE794
:10B8900000200240001002409C7705080020004074
:10B8A000040704007FBB22200024F400703A00202B
:10B8B00000000020000001400000FF1F10B50446FA
:10B8C0000220FDF799FA042C034628BF002401202A
:10B8D000FDF792FA9C420AD128B10B4A936803F013
:10B8E0000303032B00D010BDD368DB07FBD4204635
